:040000000C9450010B
:100004000C9400000C9400000C9400000C9400006C
:100014000C9400000C9400000C9400000C9400005C
:100024000C9400000C940D020C9400000C9400003D
:100034000C9400000C9400000C9400000C9400003C
:100044000C9400000C9400000C9400000C9400002C
:100054000C9400000C9400000C9400000C9400001C
:100064000C9400000C9400000C9400000C9400000C
:100074000C9400000C9400000C9400000C940000FC
:100084000C9400000C94C0020C9400000C9400002A
:100094000C9400000C9400000C9400000C940000DC
:1000A4000C9400000C9400000C9400000C940000CC
:1000B4000C9400000C9400000C9400000C940000BC
:1000C4000C9400000C9400000C9400000C940000AC
:1000D4000C9400000C9400000C9400000C9400009C
:1000E4000C9400000C9400000C9400000C9400008C
:1000F4000C9400000C9400000C9400000C9400007C
:100104000C9400000C9400000C9400000C9400006B
:100114000C9400000C9400000C9400000C9400005B
:100124000C9400000C9400000C9400000C9400004B
:100134000C9400000C9400000C9400000C9400003B
:100144000C9400000C9400000C9400000C9400002B
:100154000C9400000C9400000C9400000C9400001B
:100164000C9400000C9400000C9400000C9400000B
:100174000C9400000C9400000C9400000C940000FB
:100184000C9400000C9400000C9400000C940000EB
:100194000C9400000C9400000C9400000C940000DB
:1001A4000C9400000C9400000C9400000C940000CB
:1001B4000C9400000C9400000C9400000C940000BB
:1001C4000C9400000C9400000C9400000C940000AB
:1001D4000C9400000C9400000C9400000C9400009B
:1001E4000C9400000C9400000C9400000C9400008B
:1001F4000C9400000C94000020222A2B2C5B3D5D03
:100204007C7F000000040002000180004000200008
:1002140010000800040002000000008000400020DC
:100224000010000800400020001000080004000234
:10023400303A2F4456532F312F547261636B5F3021
:10024400312E776176000100EBFE904D53444F53FD
:10025400352E30004E4F204E414D45202020204663
:1002640041543332202020004E4F204E414D452032
:1002740020202046415420202020200001002D4E23
:10028400414E00494E46000015006C28340201001E
:10029400D02E4A020100D92E80020000F894EE27E5
:1002A400F091CC01F860F093CC01F8EDF4BFE09349
:1002B400A20080E090E1A0E0B0E2ED930197E9F7BD
:1002C400ECE8F2E085919591009761F0A591B591E4
:1002D40005901590BF01F00105900D920197E1F78B
:1002E400FB01F0CFE4E0E0B9E0E0E1B9E2B9E3B961
:1002F400E4B9E5B9E6B9E7B9E8B9E9B9EAB9EBB9F6
:10030400ECB9EDB9EEB9EFB92E2E3E2E4E2E5E2E7F
:100314006E2E7E2E8E2E9E2EAE2EBE2ECE2EDE2E39
:10032400EFEFEDBFEFE2EEBFC0E0D4E20C94E402E5
:100334001A930A930FB7F894EBEDE0935200E0910F
:100344005000E860E0935000E0915100E870E1F360
:10035400E0915500E070E06CE2601E2FE8EDE4BF30
:1003640010935500E0915000E061E0935000E0915B
:100374004100E0781E2FE8EDE4BF10934100E091C6
:100384005100E071E1F3E0914000E87FE4601E2F4A
:10039400E8EDE4BF10934000E0915000E87FE09363
:1003A4005000E091B400E07FE093B4000FBF0991E6
:1003B400199108951A93E0914300E17FED60E09371
:1003C4004300E0910004E87FE09300041FB7F89431
:1003D400E0910104E170E1F7E8E4F1E0E0930A045C
:1003E400F0930B04E0E0F0E0E0930804F0930904D8
:1003F400E0930C04F0930D041FBFE0910004E87F28
:10040400E160E0930004E0910204E07FE160E093A6
:100414000204199108950A921A92FA926A937A93AD
:100424008A939A93AA93BA93EA93FA93EFB7EA93C7
:100434000E94C20AE991EFBFF991E991B991A9919A
:100444009991899179916991F990199009901895E8
:10045400E0E0E0932406E3E0E0932006E0E0E093AC
:100464003006E0933106E8E1E0933206E1E0E09300
:100474003306E0912906E07FE360E0932906E0E09B
:10048400E0932A06E0932B06E0934406E0934006AB
:10049400E0E1E0935006E0935106E0935206E093C6
:1004A4005306E0E0E0935406E0935506E0935606C5
:1004B400E0935706E0934E06E0914906E07FE0930F
:1004C4004906E0E0E0934A06E0934B06E0936406B5
:1004D400E0936006E0937006E0937106E093720681
:1004E400E0937306E0937406E0937506E093760652
:1004F400E0937706E0916906E07FE0936906E0E027
:10050400E0936A06E0936B06E8E0E0938406E093E8
:100514008006E0E0E0939006E0939106E093920673
:10052400E0939306E0918906E07FE0938906E0E09A
:10053400E0938A06E0938B060895E8E0E09385064D
:10054400E3E0E093A50AE091A30AE07CE093A30A28
:10055400EEE2E093A60AE8E9E093A70AE091A40A90
:10056400E07EE860E093A40A0895AA93E091A10ACA
:10057400E072E1F3E881E093A00A8CC5AA93BA93F0
:10058400EA93FA93EFB7EA93A2E8B8E2A80DB91D8B
:10059400EC91E0936406EFEFF5E08E169F0620F4ED
:1005A400F40131964F0107C0E0912406EE7FE093F9
:1005B400240688249924E991EFBFF991E991B9912E
:1005C400A9911895E091A200E873E5601E2FE8ED6B
:1005D400E4BF1093A200E0E0E093A100A9DEEADE0C
:1005E40037DFEFEFE0936006E0912406EE7FE093BF
:1005F4002406E0912406ED7FE093240688249924C0
:100604009CDF7894E0E0EA93A4E0B4E20E94A318AB
:100614003E2EA0EDB7E00E943220E6E3F6E2FA9324
:10062400EA93ECE6F8E2FA93EA93A1E00E94D51883
:100634003E2EE03009F0D3C1E0917328E053E093FB
:10064400862EE0917B28E053AAE0EA9FF001AE2FCA
:10065400E0917C28AE0FE0E30E945C21EA1BE0936A
:10066400872EE6E3F6E2FA93EA93A7E3B0E080E0AC
:1006740090E00E94131D3E2EE03009F0AFC1E6E386
:10068400F6E2FA93EA93E2E8FEE2FA93EA93E4E00C
:10069400F0E0FA93EA93ADB7BEB711975F924F9229
:1006A4000E94301A4F905F903E2EE03009F096C1C0
:1006B400ECE6F8E2FA93EA93A6E5B8E20E94C41FD6
:1006C4003E2EE03009F08AC1E6E3F6E2FA93EA93BB
:1006D400EDB7FEB7FA93EA93DF92E1E0F0E0FA9324
:1006E400EA93ADB7BEB711975F924F920E94301A4A
:1006F4004F905F90DF903E2EE03009F06FC1E6E34B
:10070400F6E2FA93EA93ECE8FEE2FA93EA93E0E481
:10071400F0E0FA93EA93ADB7BEB711975F924F92A8
:100724000E94301A4F905F903E2EE03009F056C17F
:10073400E0915628F09157286091582870915928D3
:10074400E093CC2EF093CD2E6093CE2E7093CF2ECB
:10075400EC57F04060407040E093CC2EF093CD2EE7
:100764006093CE2E7093CF2EA091CC2EB091CD2E2F
:100774008091CE2E9091CF2EE0E0F6E060E070E024
:100784000E94E9203F01A091CC2EB091CD2E809102
:10079400CE2E9091CF2EA030E0E0BE07E0E08E0791
:1007A400E2E09E0728F1EFEF2E2EF091822EE0E09A
:1007B400DF01E091832EF0E0AE0FBF1FE0E0F2E036
:1007C4000E94E420E093882EF091842EE0E0DF0183
:1007D400E091852EF0E0AE0FBF1FE0E0F2E00E9452
:1007E400E420E093892EEDE7F1E060E070E048C09A
:1007F400A091CC2EB091CD2E8091CE2E9091CF2E63
:10080400E3E0F2E062E070E00E94E9202E2EA09185
:10081400CC2EB091CD2E8091CE2E9091CF2EE0E0B3
:10082400F0E061E070E00E94E9205F01F091822E27
:10083400E0E0DF01E091832EF0E0AE0FBF1FF50191
:100844000E94D120E093882EF091842EE0E0DF0115
:10085400E091852EF0E0AE0FBF1FF5010E94D1207C
:10086400E093892EA091CC2EB091CD2E8091CE2EE6
:100874009091CF2EE8E8F8E561E070E00E94E9206D
:10088400E093CC2EF093CD2E6093CE2E7093CF2E8A
:10089400A091CC2EB091CD2E8091CE2E9091CF2EC2
:1008A400E0E0F1E060E070E00E94E920E0938A2E4D
:1008B400E091CC2EE0938B2EEAEAED1561F0CC2486
:1008C400E0E4CE1640F4EC2DF0E0E457F14DA0E066
:1008D400A083C394F5CFCC24E6E4CE1688F4E0E4F8
:1008E400CE1628F4EC2DF0E0E457F14D05C0EC2DC4
:1008F400E054F0E0EA57F14DA08137DEC394ECCF29
:10090400E091822EE09364068BE08A95F1F7E09102
:100914002406E160E09324068BE08A95F1F7E091E8
:100924002406EE7FE0932406E091832EE093640690
:100934008BE08A95F1F7E0912406E160E0932406C8
:100944008BE08A95F1F7E0912406EE7FE09324068C
:10095400E091842EE09364068BE08A95F1F7E091B0
:100964002406E160E09324068BE08A95F1F7E09198
:100974002406EE7FE0932406E091852EE09364063E
:100984008BE08A95F1F7E0912406E160E093240678
:100994008BE08A95F1F7E0912406EE7FE09324063C
:1009A400209264068BE08A95F1F7E0912406E160D9
:1009B400E09324068BE08A95F1F7E0912406EE7F1C
:1009C400E09324068BE08A95F1F7009AE0912406DF
:1009D400E260E0932406E8E0E0932A0605C0E09193
:1009E4002406ED7FE0932406009B7AC0E091240660
:1009F400E17069F5E6E3F6E2FA93EA93E2E8F8E2F5
:100A0400FA93EA93E0E0F6E0FA93EA93ADB7BEB75F
:100A140011975F924F920E94301A4F905F903E2E32
:100A2400E030A9F4E0912406E160E0932406062C6A
:100A3400072849F4E0E0E0932A06A6E3B6E20E9420
:100A4400001D3E2E04C0F30131973F013196E09121
:100A54004806E27031F4E0914806E47011F4E0E0F5
:100A640001C0E1E00E2EA0E00199A1E0E0E00E94C7
:100A7400A120E02131F1E0912406EE7FE0932406E9
:100A8400E0914806E27011F0029A01C00298E091E8
:100A94004806E87011F4039801C0039A0098019A7B
:100AA400E0E0E0932A06A6E3B6E20E94001D3E2E93
:100AB400E03011F488249924E0912406ED7FE0933A
:100AC4002406E0914806E2700E94A620AE2FE09131
:100AD4004806E4700E94A620EA2309F0019884CF16
:100AE400039B22C00398E0E3E0937B28E1E3E093D7
:100AF4007C28029B0CC0A0917328A63311F4E1E377
:100B040003C0E0917328EF5FE09373280CC0029A4E
:100B1400A0917328A13311F4E6E303C0E091732894
:100B2400E150E09373283AC0029B1DC0A0917C2839
:100B3400A93399F4E0E3E0937C28A0917B28A933BE
:100B440031F4E0937B28E1E3E0937C2805C0E09155
:100B54007B28EF5FE0937B2805C0E0917C28EF5F62
:100B6400E0937C281BC0A0917C28A03391F4E9E396
:100B7400E0937C28A0917B28A03329F4E0937B2880
:100B8400E0937C2805C0E0917B28E150E0937B282A
:100B940005C0E0917C28E150E0937C283ECDFFCF56
:100BA400AA930E94762120E00C81AD81BE813D9103
:100BB400AD83BE8318E0220FE22FE327E07811F023
:100BC400E9E02E27330F1150B1F7015071F7E22FEE
:100BD400EE0FE1600E947D2171C51A93E2E3E09378
:100BE400D22EEFEFE093C308E091C208E078E1F37E
:100BF400EFEFE093C308E091C208E078E1F31091CD
:100C0400C3081F3F21F0E091D22EE03009F401C067
:100C1400EFCFE12FC9C4E0E1E0934506EFEFE093A5
:100C2400C308E091C208E078E1F30895BA93AA9367
:100C34000E947621E4E1E093D12EEFEFE093C30824
:100C4400E091C208E078E1F31091C3081F3F21F45A
:100C5400E091D12EE03009F401C0EFCF1E3F21F026
:100C6400E0E00E947D21F1C22E813F81EFEFE0930D
:100C7400C308E091C208E078E1F33F932F932F5F1C
:100C84003F4FE091C308AF91BF91EC93EFEFE09336
:100C9400C308E091C208E078E1F33F932F932F5FFC
:100CA4003F4FE091C308AF91BF91EC93EFEFE09316
:100CB400C308E091C208E078E1F33F932F932F5FDC
:100CC4003F4FE091C308AF91BF91EC93EFEFE093F6
:100CD400C308E091C208E078E1F33F932F932F5FBC
:100CE4003F4FE091C308AF91BF91EC93EC81FD813C
:100CF4003497EC83FD8309F0B9CFEFEFE093C30899
:100D0400E091C208E078E1F3EFEFE093C308E091EB
:100D1400C208E078E1F3E1E00E947D2196C2AA9343
:100D24000E9476215ADFEF3F21F0E0E00E947D210E
:100D3400C5C4EC81E093C308E091C208E078E1F314
:100D4400AC81AD3FC1F100E02D813E81D9012F5F1F
:100D54003F4FEC91E093C308E091C208E078E1F3DF
:100D6400D9012F5F3F4FEC91E093C308E091C20893
:100D7400E078E1F3015051F7EFEFE093C308E0911D
:100D8400C208E078E1F3EFEFE093C308E091C20812
:100D9400E078E1F3EFEFE093C308E091C208E07874
:100DA400E1F31091C308E12FEF71E53021F0E0E0A9
:100DB4000E947D2183C4E1E00E947D217FC40E94C2
:100DC4004E211A930A93EE81E07881F0EE81EF7759
:100DD400EE83E7E7EA93A0E0B0E080E090E0EFDFA5
:100DE4000E2F023018F01981088168C4AE81AC342A
:100DF40059F011DFE0E1E0934606EFDEEF3F21F02A
:100E0400EFEF198108815AC4EE81E093C308E091A1
:100E1400C208E078E1F3ED81E093C308E091C208F1
:100E2400E078E1F3EC81E093C308E091C208E07854
:100E3400E1F3EB81E093C308E091C208E078E1F3C9
:100E4400EA81E093C308E091C208E078E1F311E09D
:100E5400AE81A03411F415E904C0AE81A83409F4BC
:100E640017E81093C308E091C208E078E1F3AE817B
:100E7400AC3439F4EFEFE093C308E091C208E078B2
:100E8400E1F31FEFEFEFE093C308E091C208E078CD
:100E9400E1F30091C30807FF02C0115009F401C037
:100EA400F1CFE02F1981088109C4BA93AA931A9348
:100EB40014E0EFEFE093C308E091C208E078E1F3B7
:100EC400A981BA811196A983BA831197E091C308C5
:100ED400EC93115071F737C5AA9324970E94762199
:100EE400E885E03011F0E1E0C9C0EAE0E093D12EFA
:100EF400E091D12EE030E1F7E091D02EE27009F0DC
:100F0400BBC0E0E1E0934106E0934506E0EAE093EC
:100F14004606E0E4E0934206E8E1E0935606E0EB9F
:100F2400E0934106E3E5E093C00835E01AE0EFEF13
:100F3400E093C308E091C208E078E1F31150B9F7F7
:100F4400E0E4EA93A0E0B0E080E090E038DF0E2F28
:100F54003150013011F0303009F401C0E7CF30E0F6
:100F6400013009F068C0E4E6E093D12EE8E4EA93A6
:100F7400AAEAB1E080E090E022DFE13091F5DE0101
:100F8400149693DFAE81A13019F4AF81AA3A09F027
:100F940027C0E091D12EE03049F0E9EEEA93A0E0D9
:100FA400B0E080E090E40BDFE03009F401C0F1CF61
:100FB400E091D12EE03049F0EAE7EA93A0E0B0E016
:100FC40080E090E0FCDEE03009F00AC0DE01149617
:100FD4006CDFEC81E07411F0ECE001C0E4E03E2F42
:100FE4002AC0E9EEEA93A0E0B0E080E090E0E7DE1A
:100FF400E23018F432E009EE02C031E001E4E0919D
:10100400D12EE03041F00A93A0E0B0E080E090E01F
:10101400D6DEE03009F401C0F2CFE091D12EE03009
:1010240049F0E0E5EA93A0E0B2E080E090E0C7DEBA
:10103400E03009F030E03093D32EEDDD303049F06C
:10104400E091D02EEE7FE093D02EE0EDE093C00847
:1010540013C0E0E1E0934606C0DDDDDDE0E0E093AF
:10106400C008E0EFE0934206E0E1E0934206E0913D
:10107400D02EE160E093D02EE091D02E0E947D210D
:1010840029960895AA93E881E03011F0E1E002C0C6
:10109400E091D02E21960895AA93EF81E03019F4BF
:1010A400E881E03011F4E4E0D0C0E091D02EE170AA
:1010B40011F0E3E0CAC0E091D32EE87071F4E98145
:1010C400FA816B817C81A0E0B2E080E090E00E9434
:1010D400AB20E983FA836B837C83A881A130A9F4D4
:1010E400E1E5EA93AA81BB818C819D8168DEE030D1
:1010F40059F4ED81FE81FA93EA93A0E0B2E096DD23
:10110400E03011F0E0E0E88323C0E2E5EA93AA814D
:10111400BB818C819D8153DEE030D1F4ED81FE8171
:10112400FA93EA93A0E0B2E081DDE03051F0ED8182
:10113400FE81E050FE4FED83FE83E881E150E883B9
:1011440069F7ECE4EA93A0E0B0E080E090E037DEF9
:1011540062DDE881E03011F0E1E001C0E0E075C05B
:10116400AA93EF81E03019F4E881E03011F4E4E06F
:101174006CC0E091D02EE17011F0E3E066C0E09124
:10118400D02EE47011F0E2E060C0E091D32EE8705C
:1011940071F4E981FA816B817C81A0E0B2E080E0A6
:1011A40090E00E94AB20E983FA836B837C83A8815F
:1011B400A130A1F4E8E5EA93AA81BB818C819D81E9
:1011C400FEDDE03051F4ED81FE81FA93EA93AEEF57
:1011D400A6DDE03011F0E0E0E88330C0E091D32EEA
:1011E400E67039F0E7EDEA93A981BB2788279927B0
:1011F400E6DDE9E5EA93AA81BB818C819D81DFDD8F
:10120400E030E1F4ED81FE81FA93EA93ACEF87DDFF
:10121400E03051F0ED81FE81E050FE4FED83FE831E
:10122400E881E150E88371F7E0E0F0E0FA93EA93B3
:10123400ADEF75DDE03011F4E1E0E883ECDCE8814A
:10124400E03011F0E1E001C0E0E028960895BA939F
:10125400AA9360970E947621EF89E03011F0E4E0D0
:101264008BC1E091D02EE17011F0E3E085C111E073
:10127400EE89E03041F4E0E1E0934606AEDCEF3F76
:1012840009F410E077C1E13009F05BC0E9E4EA93C6
:10129400A0E0B0E080E090E092DDE03049F4FE01AF
:1012A4003496FA93EA93A0E1B0E0C0DCE03009F4AC
:1012B40047C0EC81E295EF70E695E695E13069F47C
:1012C400E0E0FC85AD85B0E0EA0FFB1F31969F019D
:1012D400D90188279927EAE02CC0E985EF70AE2F61
:1012E400EE85E078EE1FE0E0EE1FAE0FED85E370D3
:1012F400EE0FEA0FEE5F0E2FEC85E295EF70E695A8
:10130400E695AE2FEB85F0E00E947A20B0E0AE0FB8
:10131400BF1FEA85E370F0E00E947A20FE2FE0E030
:10132400EA0FFB1F31969F01D90188279927E02FE7
:10133400E9500E945E20AC89BD890E942B2110E0F7
:1013440019C1E23041F4AC89BD89E0E0F2E0ED93EB
:10135400FC9310E00FC1E33009F0AFC0E091D32E4D
:10136400E470A1F1EDECEA93A0E0B0E080E090E05D
:1013740026DDE03051F5EFEFE093C308E091C208B9
:10138400E078E1F3FE013496FA93EA93A0E1B0E049
:101394004DDCE030D1F000E3003049F0EFEFE093B2
:1013A400C308E091C208E078E1F30150F5CFEE857F
:1013B400E295EF70A0E1B0E080E090E00E945E2052
:1013C400AC89BD890E942B2110E076C0E9E4EA9340
:1013D400A0E0B0E080E090E0F2DCE03009F06CC026
:1013E400FE013496FA93EA93A0E1B0E01FDCE0300A
:1013F40009F462C0E091D32EE27051F1EE85EF73EF
:10140400FF27662777270E9488207F936F93FF9397
:10141400EF93EF85E078FF2766277727DF01CB017D
:10142400E7E00E946A20AF91BF918F919F910E9443
:101434003C20EF5FFF4F6F4F7F4FDF01CB01E98906
:10144400E295EF70E695E695E1500E945E202FC08C
:10145400EE85EC77E695E695FF2766277727EF5F1D
:10146400FF4F6F4F7F4F7F936F93FF93EF93EF8502
:10147400E370FF2766277727DF01CB01E3E00E94B3
:101484005E20DF01CB01EF85E07EE295EF70E6950B
:10149400FF27662777270E943C20EF5FFF4F6F4F9F
:1014A4007F4FAF91BF918F919F910E94AB20AC89E8
:1014B400BD890E942B2110E05DC0EA3039F4E0912F
:1014C400D32EAC89BD89EC9310E054C0EB3011F4F9
:1014D40009E403C0EC3001F50AE40A93A0E0B0E0AB
:1014E40080E090E06CDCE030B1F4EC89FD89FA93A3
:1014F400EA93A0E1B0E09ADBE03069F0EC89FD8981
:10150400FA93EA93AFE04CDBAE2FEC89FD89E785D3
:10151400EA1709F410E02EC0ED3071F4EAE7EA931B
:10152400A0E0B0E080E090E04ADCE03021F4AC8957
:10153400BD89BBDC10E01EC0EE30D9F4EDECEA93BB
:10154400A0E0B0E080E090E03ADCE03089F4EFEF36
:10155400E093C308E091C208E078E1F3EC89FD89E7
:10156400FA93EA93A0E4B0E061DBE03009F010E024
:1015740001C014E050DBE12F0E947D21689608959C
:101584001A931091D12E103019F011501093D12EBE
:101594001091D22E103019F011501093D22EE091E8
:1015A400D02EEB7FE093D02E199108952797A09128
:1015B4000024B0910124109731F0A0910224B0913D
:1015C4000324109729F4E0E0F0E061E27AE376C0C6
:1015D400FE013696FA93EA93FE013796FA93EA935C
:1015E400DE011896E0910024F09101240995FE0192
:1015F4003396FA93EA93FE013496FA93EA93DE0162
:101604001496E0910224F09103240995E881F9816C
:10161400EC5BF74066277727DF01CB01E9E10E9405
:101624005E207F936F93FF93EF93EA81F0E00E9433
:101634009720DF01CB01E5E10E945E20AF91BF91CD
:101644008F919F910E945520DF01CB01EB81F0E047
:101654000E9497200E9492200E9455207F936F93AE
:10166400FF93EF93EE81F0E00E949720DF01CB011E
:10167400EBE00E945E20AF91BF918F919F910E94F9
:1016840055207F936F93FF93EF93ED81F0E00E94D9
:101694009720DF01CB01E5E00E945E20AF91BF916E
:1016A4008F919F910E945520DF01CB01EC81F0E0E6
:1016B400F595E7950E9497200E9455202796089556
:1016C400AA931A93EA81FB81E4911E2FE03019F06A
:1016D400E981E11709F406C0EA81FB813196EA83C6
:1016E400FB83F0CFE12FF0E01881249608950E9447
:1016F4004E2124971A93A985BA859E960E9420218B
:10170400E983FA836B837C83ED81FE816F81788525
:10171400A981BA818B819C810E946A2109F483C0CA
:10172400E985FA85E481E03009F456C0E985FA8553
:10173400A181AA93EA85FB85F296FA93EA93EC8158
:10174400FD816E817F810E944921A1E009DDE030A5
:1017540009F05CC0A985BA851496E0E0EC93E985AC
:10176400FA85A2A1B3A184A195A10D01A985BA8589
:101774005A960E942021D0010E943C20A981BA815E
:101784008B819C810E946F2138F5E985FA8513814C
:10179400123010F1A985BA855A960E942021A98198
:1017A400BA818B819C810E943C20E983FA836B83FC
:1017B4007C83E985FA85A181AA93EA85FB85F29663
:1017C400FA93EA93EC81FD816E817F810E94492125
:1017D400A1E0C6DC1150DCCFED81FE816F817885FC
:1017E4000E94602101F1E985FA85A181AA93EA8525
:1017F400FB85F296FA93EA93E885F9856A857B85F9
:101804000E944921A1E048DCE03021F0E1E01881A8
:101814002B960895ED81FE816F817885A985BA851F
:101824009E960E942B21E0E01881F0C6BA93AA93F9
:101834001A93E981FA81FA93EA93A0E0B0E080E098
:1018440090E055DF1E2F103009F07CC0A981BA81C9
:10185400AC91A33029F4E981FA81E581E03009F4FF
:1018640065C0A981BA819E96E0E0F0E060E070E096
:101874000E942B21E981FA81F296FA93EA93E0E03F
:10188400EA93A0E0B2E00E942220E981FA81F29674
:10189400E250FE4FA5E5BAEAA083B183E981FA815B
:1018A400F296A2E5B2E581E691E40E944421E98141
:1018B400FA81F296EC51FE4FA2E7B2E781E491E699
:1018C4000E944421E981FA81F296E851FE4F0F010A
:1018D400A981BA811E960E942021D0010E942B2149
:1018E400E981FA81F296E451FE4F0F01A981BA8190
:1018F4001A960E942021D0010E942B21E981FA81AD
:10190400A181AA93EA81FB81F296FA93EA93EC818E
:10191400FD81A289B389848995890E944E21A1E021
:101924001FDCA981BA811596E0E0EC93E981FA8184
:10193400A181AA93E0E0EA93A0E0B0E088DCE03083
:1019440009F011E0E12F1881239608950E944E2199
:1019540024970E947621A885B9858A859B85A23023
:10196400E0E0BE07E0E08E07E0E09E0760F0AC85B3
:10197400BD855E960E942021A885B9858A859B85B0
:101984000E946F2128F0E1E0F0E060E070E0C2C066
:10199400AC85BD8592960E942021EC83FD836E83E5
:1019A4007F83AC85BD85EC91F0E0E130A0E0FA07DF
:1019B40009F054C028853985F901F695E7952E0F6D
:1019C4003F1FEC85FD85FA93EA93D901E0E0F2E04C
:1019D4000E94D120AE81BF818885998566277727AB
:1019E4000E94412084DEE03009F090C0AC85BD85C2
:1019F400D296F901F170AE0FBF1F0C9111272F5F22
:101A04003F4FEC85FD85FA93EA93D901E0E0F2E0DB
:101A14000E94D120AE81BF8188859985662777276A
:101A24000E94412064DEE03009F070C0AC85BD85C1
:101A3400D296F901F170AE0FBF1FEC91FE2FE0E0DA
:101A44000E2B1F2BE885E17021F0F8010E947F2006
:101A540002C0F801FF70662777275CC0E230A0E07F
:101A6400FA0739F5EC85FD85FA93EA93AA85BB85D7
:101A74008C859D85E0E0F1E060E070E00E94E92063
:101A8400AE81BF81888599850E94412030DEE03097
:101A9400E9F5A885B985E2E00E94CB20F170AC8518
:101AA400BD85D296AE0FBF1F0E941C2166277727E3
:101AB40031C0E330A0E0FA0749F5EC85FD85FA93DF
:101AC400EA93AA85BB858C859D85E0E8F0E060E01B
:101AD40070E00E94E920AE81BF81888599850E94CB
:101AE400412005DEE03091F4A885B985E4E00E9448
:101AF400CB20F170AC85BD85D296AE0FBF1F0E947E
:101B04002021EF7FFF7F6F7F7F7004C0EFEFFFEF37
:101B14006FEF7FEF0E947D212E9608950E944E2143
:101B240024970E947421AE85BF8588899989A23043
:101B3400E0E0BE07E0E08E07E0E09E0760F0AA89DF
:101B4400BB895E960E942021AE85BF8588899989CC
:101B54000E946F2110F052E0EEC0AA89BB899296D0
:101B64000E942021EE83FF8368877987AA89BB8935
:101B7400EC91F0E0E130A0E0FA0709F07BC00E85BB
:101B84001F85F801F695E7950E0F1F1FEA89FB895B
:101B9400FA93EA93D801E0E0F2E00E94D120A8850C
:101BA400B9858A859B85662777270E9441209FDD1A
:101BB4005E2F503009F0BAC0AA89BB89D296F801C9
:101BC400F170EA0FFB1F9F01EE85E17051F0D9011E
:101BD400EC91EF70AE2FEA85F0E00E947620EA2BBC
:101BE40001C0EA85D901EC930F5F1F4FAA89BB8915
:101BF4001496E1E0EC93EA89FB89FA93EA93D8011D
:101C0400E0E0F2E00E94D120A885B9858A859B8511
:101C1400662777270E9441206ADD5E2F503009F045
:101C240085C0AA89BB89D296F801F170EA0FFB1F1F
:101C34009F01EE85E17059F0AA85BB858C859D8551
:101C4400E4E00E946A20FF276627772710C0D901A5
:101C5400EC91E07F1E2EAA85BB858C859D85E8E0EE
:101C64000E946A20FF2766277727EF70E129D901B0
:101C7400EC935CC0E230A0E0FA0749F5EA89FB89FD
:101C8400FA93EA93A889B9898A899B89E0E0F1E00B
:101C940060E070E00E94E920A885B9858A859B856B
:101CA4000E94412024DD5E2F503009F03FC0AE85F4
:101CB400BF85E2E00E94CB20F170AA89BB89D2964D
:101CC400EA0FFB1FAA85BB85A083B1832FC0E33035
:101CD400A0E0FA0751F5EA89FB89FA93EA93A88907
:101CE400B9898A899B89E0E8F0E060E070E00E94AD
:101CF400E920A885B9858A859B850E944120F7DC67
:101D04005E2F503099F4AE85BF85E4E00E94CB206D
:101D1400F170AA89BB89D296EA0FFB1FAA85BB85FD
:101D24008C859D850E94442101C052E0AA89BB890B
:101D34001496E1E0EC93E52F0E947B2164960895CC
:101D44000E944E2124971A93AD81BE818F8198857C
:101D5400A230E0E0BE07E0E08E07E0E09E0760F01E
:101D6400A985BA855E960E942021AD81BE818F81AE
:101D740098850E946F2110F012E074C010E0A985CC
:101D8400BA855E960E942021AD81BE818F8198859F
:101D94000E946F2108F066C0E985FA85FA93EA93F8
:101DA400AF81B88589859A85D1DDE983FA836B8310
:101DB4007C830E94602109F455C0A981BA818B817A
:101DC4009C81A130E0E0BE07E0E08E07E0E09E07E2
:101DD40011F412E047C0A981BA818B819C81AF3F85
:101DE400EFEFBE07EFEF8E07EFEF9E0711F411E060
:101DF40039C0E985FA85FA93EA93EF81F885698514
:101E04007A850E944921A0E0B0E080E090E086DE7F
:101E14001E2F103039F5E985FA85A685B7858089A6
:101E24009189AF3FEFEFBE07EFEF8E07EFEF9E070D
:101E340081F0A985BA851E960E942621EF5FFF4F87
:101E44006F4F7F4F0E943021A985BA851596E1E036
:101E5400EC93E981FA816B817C81ED83FE836F834E
:101E640078878DCFE12F1881D1C30E944E216097CE
:101E7400AC89BD895E960E9420210E943F21E88999
:101E8400F9896A897B890E946021F1F4AC89BD8952
:101E94001A960E942021EC83FD836E837F83AC819C
:101EA400BD818E819F810E94642129F00E94352189
:101EB4000E946F2140F0E1E0F0E060E070E0EC832C
:101EC400FD836E837F8334C0EC89FD89FA93EA93A2
:101ED400AA89BB898C899D8939DDEC87FD876E874A
:101EE4007F87AC85BD858E859F85A230E0E0BE07E7
:101EF400E0E08E07E0E09E0728F4E1E0F0E060E037
:101F040070E0E2C00E943521AC85BD858E859F8539
:101F14000E946F2128F4EC85FD856E857F85D4C0F1
:101F2400E889F9896A897B89EC83FD836E837F83E1
:101F3400EC81FD816E817F81E887F9876A877B87E1
:101F4400E885F9856A857B85EF5FFF4F6F4F7F4F8B
:101F5400E887F9876A877B870E943521A885B98538
:101F64008A859B850E946F21C0F0E2E0F0E060E08A
:101F740070E0E887F9876A877B87EC81FD816E8151
:101F84007F81A885B9858A859B850E946A2128F46A
:101F9400E0E0F0E060E070E097C0EC89FD89FA933E
:101FA400EA93AA85BB858C859D85D0DCEC87FD876B
:101FB4006E877F870E94602151F1AC85BD858E8537
:101FC4009F85AF3FEFEFBE07EFEF8E07EFEF9E0762
:101FD40041F0A130E0E0BE07E0E08E07E0E09E07BC
:101FE40029F4EC85FD856E857F856EC0EC81FD81CD
:101FF4006E817F81A885B9858A859B850E946A2127
:1020040029F4E0E0F0E060E070E05EC099CFEC8994
:10201400FD89FA93EA93EA85FB856C857D850E94A8
:102024004921AFEFBFEF8FEF9FE078DDE03029F07B
:10203400EFEFFFEF6FEF7FEF47C0E889F9896A8917
:102044007B890E946021B1F0EC89FD89FA93EA93BF
:10205400EA89FB896C897D890E944921AE85BF8507
:10206400888999895BDDE03029F0EFEFFFEF6FEFAE
:102074007FEF2AC0E885F9856A857B85AC89BD89AF
:102084001A960E942B21EC89FD89A685B785808943
:102094009189AF3FEFEFBE07EFEF8E07EFEF9E079B
:1020A40079F0AC89BD891E960E9426213197604043
:1020B40070400E943021AC89BD891596E1E0EC9313
:1020C400E885F9856A857B85669608950E944E2188
:1020D4000E943521E250F040604070400E943F2150
:1020E400EC81FD81A68DB78D80A191A1E2E0F0E0A5
:1020F40060E070E00E9453210E9446200E943A2131
:102104000E946F2128F0E0E0F0E060E070E098C504
:10211400EC81FD81E281F0E00E943A210E94972047
:102124000E94AB207F936F93FF93EF93AC81BD81AB
:102134009A960E942021AF91BF918F919F910E9406
:102144003C207EC5BA93AA9324971A930A93EE81EE
:10215400FF81A885B9851496ED93FC93A885B9856C
:1021640016960E942021EA83FB836C837D83AA81D7
:10217400BB818C819D81A130E0E0BE07E0E08E0749
:10218400E0E09E0779F0A885B9850E941C217E961F
:10219400DF010E942021AA81BB818C819D810E9444
:1021A4006F2110F0E2E0C6C0EA81FB816C817D8181
:1021B4000E94602139F4A885B9850E941C21A08160
:1021C400A33009F00CC0A885B9850E941C21B696DD
:1021D400DF010E942021EA83FB836C837D83EA81F3
:1021E400FB816C817D810E946021E9F4A885B98519
:1021F4001A960E942B21A885B9850E941C21389625
:10220400DF010E941C21AE81BF81AE17BF0710F011
:10221400E2E090C0A885B9850E941C21B696DF0132
:102224000E94202163C0A885B9850E941C21E281F7
:10223400A0E1EA9F8001AE81BF81A017B10708F435
:1022440041C0A885B9850E941C21FA93EA93AC8108
:10225400BD818E819F817ADBEA83FB836C837D83DE
:10226400AA81BB818C819D81AF3FEFEFBE07EFEF69
:102274008E07EFEF9E0711F4E1E05CC0AA81BB81F9
:102284008C819D81A230E0E0BE07E0E08E07E0E0B3
:102294009E0778F0A885B9850E941C217E96DF01EF
:1022A4000E942021AA81BB818C819D810E946F2183
:1022B40010F0E2E03FC0EE81FF81E01BF10BEE8302
:1022C400FF83B9CFEA81FB816C817D81A885B985C3
:1022D4001A960E942B21A885B9850E941C21FA9385
:1022E400EA93AC81BD818E819F81F0DEDF01CB0159
:1022F400EE81FF810E947F20662777270E943C2081
:10230400A885B9851E960E942B21A885B9850E94AF
:102314001C21F296DF01EE81FF81EF70F070EE0F69
:102324000E947620EA0FFB1FA885B9855296ED938B
:10233400FC93E0E0198108812A960895AA932497D2
:102344000E947621A985BA8514960E941C21319693
:102354008F01002E012A41F0A985BA851E960E949C
:1023640020210E94602111F4E4E04EC1F801EF70D5
:1023740009F030C1A985BA851E960E942621EF5F17
:10238400FF4F6F4F7F4F0E943021A985BA851A965F
:102394000E9420210E94602171F4A985BA850E94BF
:1023A4001C213896DF010E941C210E171F0710F014
:1023B400E4E02AC10FC1F8010E947F200F01A98522
:1023C400BA850E941C21E281F0E03197E021F121DD
:1023D400309709F0FFC00E941C21FA93EA93EB8521
:1023E400FC85A285B38584859585B0DAEC83FD836D
:1023F4006E837F83AC81BD818E819F81A230E0E0BA
:10240400BE07E0E08E07E0E09E0710F4E2E0FCC0C7
:10241400AC81BD818E819F81AF3FEFEFBE07EFEFAF
:102424008E07EFEF9E0711F4E1E0EEC0A985BA85AF
:102434000E941C217E96DF010E942021AC81BD8177
:102444008E819F810E946F2108F4ABC0E885E03043
:1024540011F4E4E0D9C0A985BA850E941C21FA933D
:10246400EA93EB85FC85A285B38584859585FDDC9F
:10247400EC83FD836E837F830E94602111F4E7E087
:10248400C3C0AC81BD818E819F81A130E0E0BE07D5
:10249400E0E08E07E0E09E0711F4E2E0B5C0AC8115
:1024A400BD818E819F81AF3FEFEFBE07EFEF8E07B7
:1024B400EFEF9E0711F4E1E0A7C0A985BA850E9459
:1024C4001C21FA93EA93A0E0B0E080E090E00FD9F9
:1024D400E03011F0E1E098C0A985BA850E941C2182
:1024E400F296FA93EA93E0E0EA93A0E0B2E00E9465
:1024F4002220A985BA850E941C21DF01BE96FF9384
:10250400EF93FD01FA93EA93AE81BF8188859985A3
:10251400DDDDAF91BF910E942B2130E0A985BA8502
:102524000E941C21E2813E1720F50E941C21349652
:10253400A1E0A083A985BA850E941C21FA93EA939D
:10254400A0E0B0E080E090E0D2D8E03011F0E1E02B
:102554005BC0A985BA850E941C21BE96DF010E943A
:102564002621EF5FFF4F6F4F7F4F0E9430213F5F67
:10257400D5CFA985BA850E941C21BE96FF93EF93FF
:10258400DF010E942021DF01CB01E32FF0E00E9454
:1025940097200E9453210E944620AF91BF910E9430
:1025A4002B21EC81FD816E817F81A985BA851A96E4
:1025B4000E942B21A985BA850E941C21FA93EA93D3
:1025C400AE81BF818885998581DDA985BA851E96EE
:1025D4000E942B21F801A985BA851496ED93FC93EA
:1025E400A985BA850E941C21F296DF01F801EF70DB
:1025F400F070EE0F0E947620EA0FFB1FA985BA85C2
:102604005296ED93FC93E0E00E947D212B96089571
:10261400BA93AA930E947621EC81FD81FA93EA93FE
:10262400A0E0B0E08FDD1E2F103019F00E947D2154
:1026340007C3AC81BD810E941C21FA93EA93EE8109
:10264400FF81A685B7858089918951D81E2F1030C6
:1026540041F5AC81BD8152962D913C91D9010C91EB
:10266400003011F414E01DC0F901E385E87071F441
:102674003A932A93EE81FF81A489B589BA93AA93E8
:10268400ABE0B0E00E94F71FE03009F001C009C0E0
:10269400EC81FD81FA93EA93A0E050DE1E2F103006
:1026A40041F2E12F0E947D21CBC2BA93AA930E94EA
:1026B4007621EC81FD81FA93EA93A0E0B0E042DD5B
:1026C4001E2F103021F5AC81BD810E941C21FA938C
:1026D400EA93EE81FF81A685B785808991890E945E
:1026E400790B1E2F103099F4EC81FD81A289B389F6
:1026F4000C91053E11F0003009F409C0EC81FD8114
:10270400FA93EA93A1E01ADE1E2F1030E1F21030A2
:10271400D9F5AC81BD810E941C21FA93EA93EE8124
:10272400FF81A685B785808991890E94790B1E2F28
:10273400103051F5AC81BD8152962D913C913A9364
:102744002A93E0E0EA93A0E2B0E00E9422203A93C8
:102754002A93EE81FF81A489B589BA93AA93ABE049
:10276400B0E00E941020AC81BD8154960E941C21CF
:10277400E385E871D9011C96EC93AC81BD810E947C
:102784001C213496A1E0A083E12F0E947D2158C230
:10279400BA93AA9325970E947421AD85BE85549659
:1027A4004D915C915A934A93E0E2EA93ABE0B0E036
:1027B4000E942220E0E0E887E9871E2F2E2FE8E020
:1027C400EA87AB85BC850E941C21EE83FF83E885E4
:1027D400F985AE81BF81AE0FBF1FAC91AE32A9F5B2
:1027E400E885F9853196E887F9873197AE81BF810D
:1027F400AE0FBF1F0C910E3221F4A885B985139733
:102804000CF007C0E22F2F5FF0E0E40FF51F008308
:10281400E7CF0F3221F00C3511F0013208F402C079
:10282400E6E089C0E885F985AE81BF81EA0FFB1F28
:10283400AB85BC85ED93FC93013210F4E4E201C056
:10284400E0E2DA011B96EC9375C0E885F9853196D0
:10285400E887F9873197AE81BF81AE0FBF1F0C9116
:10286400013220F00F3211F00C3509F437C00E326A
:1028740019F0EA852E1768F0AA85A83011F40E32F3
:1028840011F0E6E058C028E0EBE0EA87110F110FE1
:1028940024C0003818F01360E6E04DC0ECEFF1E01E
:1028A400FA93EA93A02F0E94620B309711F0E6E0AE
:1028B40042C0013410F00B3508F002C0126007C0AA
:1028C400013610F00B3708F002C011600052E22FFD
:1028D4002F5FF0E0E40FF51F0083B7CFE885F9859B
:1028E400AE81BF81EA0FFB1FAB85BC85ED93FC93E2
:1028F400013210F4E4E001C0E0E00E2F203011F4C6
:10290400E6E019C0DA01AC91A53E19F4DA01E5E07C
:10291400EC93AA85A83011F4110F110FE12FE37085
:10292400E13009F40061E12FEC70E43009F408604F
:10293400FA010387E0E00E947B212F960895BA9361
:10294400AA9322970E947421E885F9853996EE832B
:10295400FF83AA85BB851E960E9420210E946021C8
:1029640009F476C0AA85BB8552964D915C91FA0113
:10297400348510E0183000F5DA01EE27A10FBE1FF0
:102984000C910032C9F0053009F405EEE0E0E030C6
:1029940041F033FF06C0013410F00B3508F001C0DC
:1029A40001C001C0005EEE81FF813196EE83FF839A
:1029B400319700831F5FDECFFA01A085A03241F179
:1029C400AE81BF811196AE83BF831197EEE2EC9383
:1029D40018E01B30E8F4DA01EE27A10FBE1F0C91BA
:1029E4000032B1F0E0E0E03041F034FF06C00134E1
:1029F40010F00B3508F001C001C001C0005EEE818B
:102A0400FF813196EE83FF83319700831F5FE1CF0F
:102A1400FA01E385A885B9851896EC93DA015C96EA
:102A24000E942021A885B9850E942B21DA0158969D
:102A34000E941C21A885B9851496ED93FC93DA01B4
:102A440056960E941C21A885B9851696ED93FC9391
:102A5400AE81BF81E0E0EC930E947B212C96089527
:102A6400BA93AA930E947621E1E0E03029F0AC8188
:102A7400BD81AC91A03209F006C0EC81FD81319694
:102A8400EC83FD83F1CFAC81BD81AC91AF3229F0F1
:102A9400AC81BD81AC91AC3579F4EC81FD8131968A
:102AA400EC83FD83AE81BF811696E0E0F0E060E048
:102AB40070E00E942B210DC0AE81BF810E941C21B9
:102AC4007696DF010E942021AE81BF8116960E9476
:102AD4002B21AC81BD81AC91BB27909780F4EE8112
:102AE400FF81FA93EA93A0E0B0E02CDB1E2FAE81C5
:102AF400BF815296E0E0F0E0ED93FC934BC0EE8191
:102B0400FF81FA93EA93DE01169642DE1E2F1030FF
:102B140009F040C0AE81BF817BDD1E2FAE81BF8135
:102B240054960E941C21E385E4700E2F103039F076
:102B3400143011F4003009F001C015E02BC000304E
:102B440049F5AE81BF8152962D913C91F901E385FF
:102B5400E07111F415E01EC0D90154960E941C21A5
:102B6400662777270E9492207F936F93FF93EF93BA
:102B7400D9015A960E941C21AF91BF918F919F91C8
:102B8400662777270E945520AE81BF8116960E9442
:102B94002B21B5CFE12F0E947D21289608950E9414
:102BA4004E21EC81FD81A181AA93ED81FE81F296F3
:102BB400FA93EA93EB81FC816D817E810E94492125
:102BC400A1E00E944E08E03011F0E3E039C0EC814E
:102BD400FD81F296E250FE4FDF010E941C21E53593
:102BE400AAEAFA0711F0E2E02BC0AC81BD81A85932
:102BF400BF4F0E942021EF7FFF7F6F7F7070E6340C
:102C0400A1E4FA07A4E56A07A0E07A0711F4E0E07A
:102C140017C0EC81FD81F296EE5AFF4FDF010E944E
:102C24002021EF7FFF7F6F7F7070E634A1E4FA0705
:102C3400A4E56A07A0E07A0711F4E0E001C0E1E04E
:102C440026960895AA9364970E947421AD8DBE8D33
:102C54000E941C21E887F987A885B985EC91E05387
:102C64000E2F0A3020F41196AC91AA3309F00AC051
:102C7400E885F9853296E887F987AD8DBE8DED93A9
:102C8400FC9302C00091D82E013010F0EBE033C267
:102C9400E02FA4EDBEE2F0E0EE0FFF1FAE0FBF1F6A
:102CA4000E941C21EE83FF83AB8DBC8DED93FC93BE
:102CB400309711F4ECE01FC2AE81BF81EC91E0309B
:102CC40089F0EE81FF81A1810E9444085E2F50FDAE
:102CD40009C0EA8DE03011F052FD01C002C0EAE003
:102CE4000AC208C2AE81BF81E0E0EC93E02FAE815E
:102CF400BF811196EC93EE81FF81A1810E946E0742
:102D04005E2F50FF02C0E3E0F6C1EA8DE03011F01F
:102D140052FD01C002C0EAE0EEC1EE81FF81FA93E8
:102D2400EA93E0E0F0E060E070E0E88FF98F6A8F0A
:102D34007B8FDF01CB0133DF1E2F1130D9F4EE81FD
:102D4400FF81F296E254FE4F9F01E481E03091F05E
:102D5400D90118960E942021EE8BFF8B688F798F02
:102D6400EE81FF81FA93EA93A88DB98D8A8D9B8DAC
:102D740016DF1E2F133011F4E1E0BDC1103049F409
:102D8400AE81BF81DD960E941C21E030A2E0FA07EB
:102D940011F0EDE0B0C1AE81BF81A85BBF4F0E94CE
:102DA4001C2166277727EA8BFB8B6C8B7D8B0E941B
:102DB400602151F4AE81BF81AA5ABF4F0E942021E5
:102DC400EA8BFB8B6C8B7D8BEA89FB896C897D8913
:102DD400AE81BF815A960E942B21EE81FF81EE5B6A
:102DE400FF4FE081AE81BF811396EC93EE81FF81AA
:102DF400E381F0E0AA89BB898C899D890E94972090
:102E04000E94AB20EA8BFB8B6C8B7D8BAE81BF81E8
:102E1400A05CBF4F0E941C21AE89BF89888D998D0B
:102E2400662777270E943C20AE81BF8192960E943C
:102E34002B21EE81FF81E7ADAE81BF811296EC9329
:102E4400AE81BF81AD5BBF4F0E941C21AE81BF81AB
:102E54001896ED93FC93AE81BF81AB5BBF4F0E948C
:102E64001C2166277727EE87FF87688B798B0E9462
:102E7400602151F4AE81BF81AE5ABF4F0E94202120
:102E8400EE87FF87688B798BAE81BF81A05CBF4FD3
:102E94000E941C21AE85BF8588899989662777277A
:102EA4000E9453210E944620AA89BB898C899D894E
:102EB4000E9446207F936F93FF93EF93EE81FF81EF
:102EC400A085B185FD010E947F20AF91BF918F91B4
:102ED4009F91662777270E944B20EE81FF81E28134
:102EE400F0E00E9497200E94E920EE5FFF4F6F4FB1
:102EF4007F4FEA87FB876C877D87AE81BF815E96B3
:102F04000E942B2111E0AA85BB858C859D85A73F56
:102F1400EFE0BE07E0E08E07E0E09E0708F012E075
:102F2400AA85BB858C859D85A73FEFEFBE07E0E0B2
:102F34008E07E0E09E0708F013E0133039F4AE8109
:102F4400BF81A25ABF4F0E9420210CC0EE81FF8195
:102F5400A2A1B3A184A195A1EA89FB896C897D8989
:102F64000E943C20AE81BF8196960E942B21EE8167
:102F7400FF81A2A1B3A184A195A1EA89FB896C89EF
:102F84007D890E943C207F936F93FF93EF93EE81A2
:102F9400FF81A085B185FD010E947F20AF91BF9183
:102FA4008F919F91662777270E943C20AE81BF8135
:102FB4009A960E942B21AE81BF811E96EFEFFFEF00
:102FC4006FEF7FEF0E942B21AE81BF811496E0E06A
:102FD400EC93133009F071C0AE81BF811596EC9368
:102FE400AE81BF81AE59BF4F0E941C21AE89BF89FB
:102FF400888D998D662777270E943C20AE81BF81FA
:1030040052960E942B21EE81FF81A181AA93EF8128
:10301400F885F296FA93EA93E985FA85A289B38949
:10302400848995890E944E21A1E00E944E08E030D7
:1030340049F5EE81FF81F296E250FE4FDF010E94D6
:103044001C21E535AAEAFA07E9F4AE81BF81D296DC
:103054000E942021E235A2E5FA07A1E66A07A1E46D
:103064007A0781F4EE81FF81F296EC51FE4FDF0185
:103074000E942021E237A2E7FA07A1E46A07A1E649
:103084007A0709F01AC0EE81FF81F296E451FE4FEF
:10309400DF010E942021AE81BF811A960E942B215C
:1030A400EE81FF81F296E851FE4FDF010E9420215C
:1030B400AE81BF811E960E942B21AE81BF811C93DD
:1030C4009E96E0E0F0E060E070E00E942B21AE818B
:1030D400BF8156960E942B21E091D62EF091D72ED7
:1030E4003196E093D62EF093D72EAE81BF811696FB
:1030F400ED93FC93E0E00E947B216F960895BA93D0
:10310400AA93EA81FB81309771F0AA81BB81EC918B
:10311400E03049F0EA81FB81A681B781E881F98139
:10312400EA17FB0711F0E9E00AC0EA81FB81A181FB
:103134000E944408E17011F0E3E001C0E0E024964D
:103144000895BA93AA931A930A93AC81A13010F00C
:10315400EBE025C0EC81A4EDBEE2F0E0EE0FFF1F32
:10316400AE0FBF1F0D911C91002E012A19F0D8013A
:10317400E0E0EC93EA81FB81309721F0AA81BB81E6
:10318400E0E0EC93EC81A4EDBEE2F0E0EE0FFF1F73
:10319400EA0FFB1FAA81BB81A083B183E0E0198100
:1031A400088125960895AA93A2970E947621A9A53D
:1031B400BAA5E0E0F0E0ED93FC93EEA1EF71EEA38D
:1031C400FE01B796FA93EA93FE017296FA93EA9394
:1031D400EAA5EE71AE2F36DD1E2F103009F03AC18C
:1031E400FE013496ECA3FDA3FE017096FA93EA93D4
:1031F400A9A5BAA535DC1E2FEEA1EC7109F4ADC06A
:103204002897103089F0143021F4DE0158964DDAF5
:103214001E2F103019F0E12F28961CC1EEA5E8608E
:10322400EEA72AA53BA57EC0EEA5E47019F0E8E060
:10323400289610C12AA53BA5022E032A21F0F901E4
:10324400E385E17119F0E7E0289604C1EEA5E87082
:1032540009F468C0D90154960E941C216627772777
:103264000E9492207F936F93FF93EF93D9015A9614
:103274000E941C21AF91BF918F919F916627772760
:103284000E9455200E943F21F9017496A0E0B0E00D
:10329400A083B183F9017A96A083B183F9017C9666
:1032A400A0E0B0E080E090E00E944421A88DB98DB8
:1032B4001496E1E0EC93A88DB98D9E960E9420218E
:1032C400EC83FD836E837F830E9435210E946021FD
:1032D400D1F0E88DF98DFA93EA93AA81BB818C81B0
:1032E4009D810E94A20E1E2F103011F02896B2C0AC
:1032F4000E943521E150F04060407040A88DB98DA6
:103304001A960E942B21E88DF98DFA93EA93AE81E7
:10331400BF81888599850E94790B1E2F103011F08A
:10332400289698C0EEA5E870B1F0F9013B96A0E0AC
:10333400A0830E94D80AEC83FD836E837F83D90126
:103344001E960E942B21A88DB98D1496E1E0EC9372
:10335400EEA5E062EEA7289619C0103011F0E12F17
:1033640079C02AA13BA1022E032A21F0F901E385A9
:10337400E07111F0E4E06EC0EEA1E27021F0F90119
:10338400E385E17009F402C0E7E064C0A889B98963
:103394009E960E942021A9A5BAA55A960E942B2187
:1033A400EAA1FBA1A9A5BAA55E96ED93FC93EEA1B3
:1033B400A9A5BAA51496EC93D90154960E941C2190
:1033C400662777270E9492207F936F93FF93EF9352
:1033D400D9015A960E941C21AF91BF918F919F9160
:1033E400662777270E945520A9A5BAA51E960E9494
:1033F4002B21D9015C960E942021A9A5BAA51A9671
:103404000E942B21A9A5BAA51696E0E0F0E060E0A1
:1034140070E00E942B21A9A5BAA51596EFEFEC93B5
:10342400A9A5BAA55696E0E0F0E060E070E00E943D
:103434002B21E889F989A9A5BAA5ED93FC93A8895C
:10344400B98916960E941C21A9A5BAA51296ED93D6
:10345400FC93E0E00E947D21AB960895BA93AA9371
:103464002E970E947421E88DF98DEE83FF83AC8939
:10347400BD89E0E0F0E0ED93FC93AA8DBB8D0E9442
:103484001C21FA93EA93EC8DFD8DA281B38137DE82
:103494001E2F103009F011C2EA8DFB8DA481A07893
:1034A40011F0E2E00AC2EA8DFB8DA481A17011F44F
:1034B400E7E003C2EA8DFB8DA285B38584859585FB
:1034C4009F938F93BF93AF93A681B7818085918596
:1034D400EF91FF916F917F910E944620E887F987D1
:1034E4006A877B87AE89BF89882799270E946A21CA
:1034F40020F4E885F985EE8BFF8BEE89FF89309700
:1035040009F4DAC1EA8DFB8DA681B78180859185A6
:10351400FD01BC01F170309709F081C1EA8DFB8D8A
:103524000580AA8DBB8D0E941C21E2810E1608F431
:1035340057C0EA8DFB8DA681B781808591850E9455
:10354400642131F4AA8DBB8D1E960E9420210EC0E9
:10355400AA8DBB8D0E941C21FA93EA93EC8DFD8DFC
:10356400A289B389848995890E94A80CE88BF98B78
:103574006A8B7B8BA889B9898A899B89A230E0E010
:10358400BE07E0E08E07E0E09E0740F4AA8DBB8D05
:103594001496EC91E068EC93E2E08FC1A889B989B4
:1035A4008A899B89AF3FEFEFBE07EFEF8E07EFEFFE
:1035B4009E0741F4AA8DBB8D1496EC91E068EC93C0
:1035C400E1E07BC1E889F9896A897B89AA8DBB8D91
:1035D40052960E942B21AA8DBB8D1596E0E0EC93A8
:1035E400AA8DBB8D0E941C21FA93EA93EC8DFD8D6C
:1035F400A289B389848995890E946810EC87FD8724
:103604006E877F870E94602141F4AA8DBB8D14963A
:10361400EC91E068EC93E2E050C1EA8DFB8DE5812A
:10362400F0E0AC85BD858E859F850E9497200E9421
:103634003C20EC87FD876E877F87AE89BF89E0E0F9
:10364400F2E00E94D120AF01042E052A09F482C0C1
:10365400EA8DFB8DE581F0E0E40FF51F0F01AA8DE3
:10366400BB8D0E941C21E281D001F0E0EA17FB0728
:1036740070F4AA8DBB8D0E941C21E281F0E0DF0171
:10368400EA8DFB8DE581F0E0AE1BBF0BAD01AA8D89
:10369400BB8D0E941C21E181EA93EF81F885FA93A6
:1036A400EA93EF85F88969897A890E944921A42FD0
:1036B4000E944E08E03041F0AA8DBB8D1496EC9127
:1036C400E068EC93E1E0F9C0EA8DFB8DA481A0747D
:1036D40081F0A689B789808D918DEC85FD856E85F5
:1036E4007F850E944B20FA01662777270E946F216D
:1036F40008F023C0EA8DFB8DA689B789808D918D52
:10370400EC85FD856E857F850E944B20E0E0F2E02C
:1037140060E070E00E94AB20AE81BF8188279927CA
:10372400EA0FFB1FFA93EA93EC8DFD8DB096FA93A2
:10373400EA93A0E0B2E00E941020AA8DBB8D1596FA
:10374400EC91E40FEC93FA01EE0FFF1FFE2FE0E083
:103754009F018BC0EA8DFB8DA481A07431F1AA8DE9
:10376400BB8D0E941C21E181EA93EB8DFC8DB09608
:10377400FA93EA93ED8DFE8DA689B789808D918D9C
:103784000E944E21A1E00E94B208E03041F0AA8DCF
:10379400BB8D1496EC91E068EC93E1E08EC0AA8DA9
:1037A400BB8D1496EC91EF7BEC93EA8DFB8DA6898F
:1037B400B789808D918DEC85FD856E857F850E940E
:1037C4006A21F1F0AA8DBB8D0E941C21E181EA934C
:1037D400EB8DFC8DB096FA93EA93EF85F8896989AD
:1037E4007A890E944921A1E00E944E08E03041F00C
:1037F400AA8DBB8D1496EC91E068EC93E1E05DC07A
:10380400EC85FD856E857F85AA8DBB8D56960E94BD
:103814002B21AA8DBB8D1596EC91EF5FEC93AA8DAD
:10382400BB8D16960E941C21F170A0E0B2E0AE1B85
:10383400BF0B9D01EE89FF89E217F30710F42E896F
:103844003F89EE81FF81FA93EA93AC8DBD8D169684
:103854000E941C21F170AC8DBD8D9096EA0FFB1F68
:10386400FA93EA93D9010E941020F901AE81BF8135
:10387400EA0FFB1FEE83FF83EA8DFB8D36960F0163
:10388400DF010E942021DF01CB01F90166277727A0
:103894000E943C20D0010E942B21AC89BD890E944A
:1038A4001C21E20FF31FED93FC93EE89FF89E21BC9
:1038B400F30BEE8BFF8B21CEE0E00E947B216C9614
:1038C4000895BA93AA9324970E947621A885B9856E
:1038D4000E941C21FA93EA93EA85FB85A281B381B5
:1038E4000EDC1E2F103009F084C0E885F985A48110
:1038F400A07209F47EC0A481A07401F1A885B985E1
:103904000E941C21E181EA93E985FA85B096FA9335
:10391400EA93EB85FC85A689B789808D918D0E94F9
:103924004E21A1E00E94B208E03011F0E1E062C053
:10393400A885B9851496EC91EF7BEC93A885B9859D
:103944000E941C21FA93EA93EA85FB85A28DB38D2C
:10395400848D958D0E94790B1E2F103009F049C07B
:10396400A885B9855E962D913C91D9011B96EC9161
:10397400E062EC93A885B9851A960E942021D901AA
:103984005C960E942B21A885B9851E960E941C2155
:10399400D9015A96ED93FC93E885F985A685B785F8
:1039A40080899189FD01BC010E948D20D901549622
:1039B400ED93FC930E94D80AEC83FD836E837F838E
:1039C400D90156960E942B21A885B9851496EC91AD
:1039D400EF7DEC93A885B9850E941C213496A1E063
:1039E400A083A885B9850E941C21DF010E94180CC0
:1039F4001E2FE12F0E947D212A960895BA93AA933F
:103A04001A93A981BA815DDF1E2F103031F4A98188
:103A1400BA81E0E0F0E0ED93FC93E12F1881239666
:103A240008950E944E2160971A93AD89BE890E9421
:103A34001C21FA93EA93EF89F88DA281B3815FDBAD
:103A44001E2F103009F09AC2ED89FE89A481A07856
:103A540011F0E2E094C2AD89BE891A960E94202139
:103A6400A989BA898B899C890E946A2128F4ED89E5
:103A7400FE89A481A27009F009C0AD89BE891A9695
:103A84000E942021E98BFA8B6B8B7C8BAD89BE89DC
:103A940016960E942021E983FA836B837C83E0E0FD
:103AA400F0E060E070E0ED83FE836F837887AD899A
:103AB400BE8916960E942B21AD89BE891596EFEF1B
:103AC400EC93A989BA898B899C890E94642108F0A6
:103AD400CBC1AD89BE890E941C21E281F0E00E9425
:103AE4009720A0E0B2E080E090E00E94AB20E9875C
:103AF400FA876B877C87A981BA818B819C810E941C
:103B0400642158F5E989FA896B897C89E150F04090
:103B140060407040DF01CB01E985FA856B857C85C7
:103B24000E94E9207F936F93FF93EF93E981FA81D9
:103B34006B817C81E150F04060407040DF01CB013B
:103B4400E985FA856B857C850E94E920AF91BF9158
:103B54008F919F910E946F2108F434C0E981FA810A
:103B64006B817C81E150F04060407040DF01CB010B
:103B7400E985FA856B857C85E150F04060407040B2
:103B84000E949C200E945020AD89BE8916960E94F6
:103B94002B21AD89BE8916960E942021A989BA8954
:103BA4008B899C890E944B20A98BBA8B8B8B9C8B15
:103BB400AD89BE8952960E942021ED87FE876F87CA
:103BC400788B57C0AD89BE891E960E942021ED874F
:103BD400FE876F87788B0E94602109F041C0AD8910
:103BE400BE890E941C21FA93EA93A0E0B0E080E031
:103BF40090E00E94370FED87FE876F87788BAD8545
:103C0400BE858F859889A130E0E0BE07E0E08E078D
:103C1400E0E09E0741F4AD89BE891496EC91E0681A
:103C2400EC93E2E0ACC1AD85BE858F859889AF3F4A
:103C3400EFEFBE07EFEF8E07EFEF9E0741F4AD897C
:103C4400BE891496EC91E068EC93E1E098C1ED85AF
:103C5400FE856F857889AD89BE891E960E942B21C9
:103C6400ED85FE856F857889AD89BE8952960E945F
:103C74002B21ED85FE856F8578890E94602109F4EA
:103C8400F3C0E985FA856B857C85A989BA898B8916
:103C94009C890E946A2108F091C0ED89FE89A48163
:103CA400A270E9F0AD89BE890E941C21FA93EA93BF
:103CB400AF85B88989899A890E94370FED87FE8775
:103CC4006F87788B0E94602149F4E985FA856B85BA
:103CD4007C85E98BFA8B6B8B7C8B70C010C0AD89B3
:103CE400BE890E941C21FA93EA93AF85B889898919
:103CF4009A890E94A80CED87FE876F87788BAD8523
:103D0400BE858F859889AF3FEFEFBE07EFEF8E0733
:103D1400EFEF9E0741F4AD89BE891496EC91E068FB
:103D2400EC93E1E02CC1AD85BE858F859889A230E6
:103D3400E0E0BE07E0E08E07E0E09E0778F0AD89A2
:103D4400BE890E941C217E96DF010E942021AD8540
:103D5400BE858F8598890E946F2140F0AD89BE8908
:103D64001496EC91E068EC93E2E009C1ED85FE85E0
:103D74006F857889AD89BE8952960E942B21ED8981
:103D8400FE8936960F01DF010E942021A985BA859C
:103D94008B859C850E943C20D0010E942B21A98503
:103DA400BA858B859C85E989FA896B897C890E940F
:103DB4004620E98BFA8B6B8B7C8B63CFED89FE8974
:103DC40036960F01DF010E942021A989BA898B89C7
:103DD4009C890E943C20D0010E942B21A989BA8988
:103DE4008B899C89E0E0F2E060E070E00E94E920C9
:103DF400AD89BE891596EC93E989FA896B897C892A
:103E0400F170309789F1AD89BE890E941C21FA9323
:103E1400EA93AF85B88989899A890E946810ED83ED
:103E2400FE836F8378870E94602141F4AD89BE8947
:103E34001496EC91E068EC93E2E0A1C0ED89FE8970
:103E4400E581F0E0AD81BE818F8198850E94972045
:103E54000E943C20ED83FE836F837887AD89BE8901
:103E64001596EC91EF5FEC93ED89FE89A681B781FD
:103E740080859185FD01BC01F170309761F0AD89B9
:103E8400BE8956960E942021AD81BE818F8198857E
:103E94000E946A2109F452C0ED89FE89A481A074AC
:103EA40031F1AD89BE890E941C21E181EA93EE893A
:103EB400FF89B096FA93EA93E88DF98DA689B789BC
:103EC400808D918D0E944E21A1E00E94B208E030C5
:103ED40041F0AD89BE891496EC91E068EC93E1E081
:103EE4004EC0AD89BE891496EC91EF7BEC93AD89FD
:103EF400BE890E941C21E181EA93EE89FF89B09674
:103F0400FA93EA93E885F9856A857B850E944921BD
:103F1400A1E00E944E08E03041F0AD89BE891496BC
:103F2400EC91E068EC93E1E02AC0ED81FE816F81C1
:103F34007885AD89BE8956960E942B21ED89FE892C
:103F4400A681B781808591850D01AD89BE891A96B8
:103F54000E942021D0010E946A2180F4AD89BE898B
:103F640016960E942021AD89BE891A960E942B21A3
:103F7400AD89BE891496EC91E062EC93E12F18812F
:103F840067960895BA93AA93A2971A93FE01B596D9
:103F9400FA93EA93FE013F96FA93EA93A0E00E9413
:103FA40024161E2F1030E9F4FE013196E9A3FAA37A
:103FB400FE013D96FA93EA93AFA1B8A50E9432158B
:103FC4001E2F103071F4EF8DF8A1309749F0FE01E7
:103FD4003D96FA93EA93ADA1BEA10E94A11401C03B
:103FE40016E0E12F1881A7960895BA93AA9366273D
:103FF400772789919991E991F991A991B9910096BD
:1040040029F001976D9171916717C9F3671B10F43B
:10401400EFEF0895E0E009F0E3950895BA93AA93C9
:1040240099818881009641F0BD81AC81FB81EA8150
:1040340061916D930197E1F7FD81EC8126960895D6
:10404400BA93AA93B981A881109631F0FC81EB81CF
:104054006A8161931197E9F7EB81FC8125960895B4
:10406400109639F080E49FE10197F1F7A895119734
:10407400C9F70895EA0FFB1F681F791F0895AE0F53
:10408400BF1F861F971F0895EA1BFB0B680B790B54
:104094000895AE1BBF0B860B970B0895EA23FB23F1
:1040A400682379230895EA2BFB2B682B792B089539
:1040B400F195E195F0400895EE230E2EFD01BC012B
:1040C40031F0EE0FFF1F661F771F0A94D1F7089592
:1040D400EE230E2EFD01BC0131F076956795F79520
:1040E400E7950A94D1F70895EE0FFF1FEE0FFF1F17
:1040F400EE0FFF1FEE0FFF1F0895F695E795F69557
:10410400E795F695E795F695E7950895EE0FFF1F69
:10411400661F771F0895E62FF72F60E070E008957B
:104124006E2F7F2FE0E0F0E008956F2F660F660B8F
:10413400762F0895E095F095609570950895EA17A7
:10414400E1E009F0EE270895EE23E1E009F0EE271F
:1041540008957A9F702D6B9F700DF89F700DE99FE5
:10416400700D6A9F602D710DFB9F600D711DE89F9E
:10417400600D711D8827FA9FF02D610D781FEB9F4C
:10418400F00D611D781FEA9FE02DF10D681F781F67
:1041940008956E2F6A9FF0016B9FF00D089500241F
:1041A400112490E1AA0FBB1F001C111C0E1A1F0A38
:1041B40018F40E0E1F1E01C0A1609A9599F7FD0117
:1041C400D001089529D0EBDF0EF472DF08953F93F8
:1041D4004F935F93002411244427552730E2AA0FFC
:1041E400BB1F881F991F001C111C441F551F0E1A4A
:1041F4001F0A460B570B28F40E0E1F1E461F571F8F
:1042040001C0A1603A9559F7FD01BC01D001CA0172
:104214005F914F913F910895E894F7FF02C048DF02
:104224006894B7FF06C0A095B095119600F8039462
:1042340000FA0895ED91FC9111970895ED91FD9187
:104244006D917C9113970895ED91FD916D917D9100
:104254000895ED93FD936D937C9308957E936E93EF
:10426400FE93EE930895E881F9816A817B81089534
:10427400A881B9818A819B810895E883F9836A833F
:104284007B830895A083B1838283938308957A9373
:104294006A93FA93EA9308959A938A93BA93AA93A2
:1042A4000895182E862F612D192E972F712D1B2EF0
:1042B400BF2FF12D1A2EAE2FE12D089530976040B7
:1042C4007040089500240A160B060806090608958E
:1042D400EA17FB07680779070895AE17BF07860733
:1042E400970708955A934A933A932A931A930A93F1
:1042F40008955D814C813B812A811981088108954B
:00000001FF
